{
  "contractName": "ERC721",
  "abi": [
    {
      "anonymous": false,
      "inputs": [
        {
          "indexed": true,
          "name": "from",
          "type": "address"
        },
        {
          "indexed": true,
          "name": "to",
          "type": "address"
        },
        {
          "indexed": true,
          "name": "tokenId",
          "type": "uint256"
        }
      ],
      "name": "Transfer",
      "type": "event"
    },
    {
      "anonymous": false,
      "inputs": [
        {
          "indexed": true,
          "name": "owner",
          "type": "address"
        },
        {
          "indexed": true,
          "name": "approved",
          "type": "address"
        },
        {
          "indexed": true,
          "name": "tokenId",
          "type": "uint256"
        }
      ],
      "name": "Approval",
      "type": "event"
    },
    {
      "anonymous": false,
      "inputs": [
        {
          "indexed": true,
          "name": "owner",
          "type": "address"
        },
        {
          "indexed": true,
          "name": "operator",
          "type": "address"
        },
        {
          "indexed": false,
          "name": "approved",
          "type": "bool"
        }
      ],
      "name": "ApprovalForAll",
      "type": "event"
    },
    {
      "constant": true,
      "inputs": [],
      "name": "name",
      "outputs": [
        {
          "name": "",
          "type": "string"
        }
      ],
      "payable": false,
      "stateMutability": "view",
      "type": "function"
    },
    {
      "constant": true,
      "inputs": [],
      "name": "symbol",
      "outputs": [
        {
          "name": "",
          "type": "string"
        }
      ],
      "payable": false,
      "stateMutability": "view",
      "type": "function"
    },
    {
      "constant": true,
      "inputs": [
        {
          "name": "owner",
          "type": "address"
        }
      ],
      "name": "balanceOf",
      "outputs": [
        {
          "name": "",
          "type": "uint256"
        }
      ],
      "payable": false,
      "stateMutability": "view",
      "type": "function"
    },
    {
      "constant": true,
      "inputs": [
        {
          "name": "tokenId",
          "type": "uint256"
        }
      ],
      "name": "ownerOf",
      "outputs": [
        {
          "name": "",
          "type": "address"
        }
      ],
      "payable": false,
      "stateMutability": "view",
      "type": "function"
    },
    {
      "constant": false,
      "inputs": [
        {
          "name": "to",
          "type": "address"
        },
        {
          "name": "tokenId",
          "type": "uint256"
        }
      ],
      "name": "approve",
      "outputs": [],
      "payable": false,
      "stateMutability": "nonpayable",
      "type": "function"
    },
    {
      "constant": true,
      "inputs": [
        {
          "name": "tokenId",
          "type": "uint256"
        }
      ],
      "name": "getApproved",
      "outputs": [
        {
          "name": "",
          "type": "address"
        }
      ],
      "payable": false,
      "stateMutability": "view",
      "type": "function"
    },
    {
      "constant": false,
      "inputs": [
        {
          "name": "to",
          "type": "address"
        },
        {
          "name": "approved",
          "type": "bool"
        }
      ],
      "name": "setApprovalForAll",
      "outputs": [],
      "payable": false,
      "stateMutability": "nonpayable",
      "type": "function"
    },
    {
      "constant": true,
      "inputs": [
        {
          "name": "owner",
          "type": "address"
        },
        {
          "name": "operator",
          "type": "address"
        }
      ],
      "name": "isApprovedForAll",
      "outputs": [
        {
          "name": "",
          "type": "bool"
        }
      ],
      "payable": false,
      "stateMutability": "view",
      "type": "function"
    },
    {
      "constant": false,
      "inputs": [
        {
          "name": "from",
          "type": "address"
        },
        {
          "name": "to",
          "type": "address"
        },
        {
          "name": "tokenId",
          "type": "uint256"
        }
      ],
      "name": "transferFrom",
      "outputs": [],
      "payable": false,
      "stateMutability": "nonpayable",
      "type": "function"
    }
  ],
  "bytecode": "0x608060405234801561001057600080fd5b50610e03806100206000396000f3fe608060405260043610610099576000357c0100000000000000000000000000000000000000000000000000000000900463ffffffff16806306fdde031461009e578063081812fc1461012e578063095ea7b3146101a957806323b872dd146102045780636352211e1461027f57806370a08231146102fa57806395d89b411461035f578063a22cb465146103ef578063e985e9c51461044c575b600080fd5b3480156100aa57600080fd5b506100b36104d5565b6040518080602001828103825283818151815260200191508051906020019080838360005b838110156100f35780820151818401526020810190506100d8565b50505050905090810190601f1680156101205780820380516001836020036101000a031916815260200191505b509250505060405180910390f35b34801561013a57600080fd5b506101676004803603602081101561015157600080fd5b8101908080359060200190929190505050610512565b604051808273ffffffffffffffffffffffffffffffffffffffff1673ffffffffffffffffffffffffffffffffffffffff16815260200191505060405180910390f35b3480156101b557600080fd5b50610202600480360360408110156101cc57600080fd5b81019080803573ffffffffffffffffffffffffffffffffffffffff16906020019092919080359060200190929190505050610563565b005b34801561021057600080fd5b5061027d6004803603606081101561022757600080fd5b81019080803573ffffffffffffffffffffffffffffffffffffffff169060200190929190803573ffffffffffffffffffffffffffffffffffffffff169060200190929190803590602001909291905050506106a8565b005b34801561028b57600080fd5b506102b8600480360360208110156102a257600080fd5b81019080803590602001909291905050506106cd565b604051808273ffffffffffffffffffffffffffffffffffffffff1673ffffffffffffffffffffffffffffffffffffffff16815260200191505060405180910390f35b34801561030657600080fd5b506103496004803603602081101561031d57600080fd5b81019080803573ffffffffffffffffffffffffffffffffffffffff16906020019092919050505061074a565b6040518082815260200191505060405180910390f35b34801561036b57600080fd5b506103746107d5565b6040518080602001828103825283818151815260200191508051906020019080838360005b838110156103b4578082015181840152602081019050610399565b50505050905090810190601f1680156103e15780820380516001836020036101000a031916815260200191505b509250505060405180910390f35b3480156103fb57600080fd5b5061044a6004803603604081101561041257600080fd5b81019080803573ffffffffffffffffffffffffffffffffffffffff169060200190929190803515159060200190929190505050610812565b005b34801561045857600080fd5b506104bb6004803603604081101561046f57600080fd5b81019080803573ffffffffffffffffffffffffffffffffffffffff169060200190929190803573ffffffffffffffffffffffffffffffffffffffff16906020019092919050505061094e565b604051808215151515815260200191505060405180910390f35b60606040805190810160405280600a81526020017f4341547320546f6b656e00000000000000000000000000000000000000000000815250905090565b600061051d826109e2565b151561052857600080fd5b6001600083815260200190815260200160002060009054906101000a900473ffffffffffffffffffffffffffffffffffffffff169050919050565b600061056e826106cd565b90508073ffffffffffffffffffffffffffffffffffffffff168373ffffffffffffffffffffffffffffffffffffffff16141515156105ab57600080fd5b8073ffffffffffffffffffffffffffffffffffffffff163373ffffffffffffffffffffffffffffffffffffffff1614806105eb57506105ea813361094e565b5b15156105f657600080fd5b826001600084815260200190815260200160002060006101000a81548173ffffffffffffffffffffffffffffffffffffffff021916908373ffffffffffffffffffffffffffffffffffffffff160217905550818373ffffffffffffffffffffffffffffffffffffffff168273ffffffffffffffffffffffffffffffffffffffff167f8c5be1e5ebec7d5bd14f71427d1e84f3dd0314c0f7b2291e5b200ac8c7c3b92560405160405180910390a4505050565b6106b23382610a53565b15156106bd57600080fd5b6106c8838383610ae8565b505050565b60008060008084815260200190815260200160002060009054906101000a900473ffffffffffffffffffffffffffffffffffffffff169050600073ffffffffffffffffffffffffffffffffffffffff168173ffffffffffffffffffffffffffffffffffffffff161415151561074157600080fd5b80915050919050565b60008073ffffffffffffffffffffffffffffffffffffffff168273ffffffffffffffffffffffffffffffffffffffff161415151561078757600080fd5b6107ce600260008473ffffffffffffffffffffffffffffffffffffffff1673ffffffffffffffffffffffffffffffffffffffff168152602001908152602001600020610cae565b9050919050565b60606040805190810160405280600381526020017f4147410000000000000000000000000000000000000000000000000000000000815250905090565b3373ffffffffffffffffffffffffffffffffffffffff168273ffffffffffffffffffffffffffffffffffffffff161415151561084d57600080fd5b80600360003373ffffffffffffffffffffffffffffffffffffffff1673ffffffffffffffffffffffffffffffffffffffff16815260200190815260200160002060008473ffffffffffffffffffffffffffffffffffffffff1673ffffffffffffffffffffffffffffffffffffffff16815260200190815260200160002060006101000a81548160ff0219169083151502179055508173ffffffffffffffffffffffffffffffffffffffff163373ffffffffffffffffffffffffffffffffffffffff167f17307eab39ab6107e8899845ad3d59bd9653f200f220920489ca2b5937696c3183604051808215151515815260200191505060405180910390a35050565b6000600360008473ffffffffffffffffffffffffffffffffffffffff1673ffffffffffffffffffffffffffffffffffffffff16815260200190815260200160002060008373ffffffffffffffffffffffffffffffffffffffff1673ffffffffffffffffffffffffffffffffffffffff16815260200190815260200160002060009054906101000a900460ff16905092915050565b60008060008084815260200190815260200160002060009054906101000a900473ffffffffffffffffffffffffffffffffffffffff169050600073ffffffffffffffffffffffffffffffffffffffff168173ffffffffffffffffffffffffffffffffffffffff161415915050919050565b600080610a5f836106cd565b90508073ffffffffffffffffffffffffffffffffffffffff168473ffffffffffffffffffffffffffffffffffffffff161480610ace57508373ffffffffffffffffffffffffffffffffffffffff16610ab684610512565b73ffffffffffffffffffffffffffffffffffffffff16145b80610adf5750610ade818561094e565b5b91505092915050565b8273ffffffffffffffffffffffffffffffffffffffff16610b08826106cd565b73ffffffffffffffffffffffffffffffffffffffff16141515610b2a57600080fd5b600073ffffffffffffffffffffffffffffffffffffffff168273ffffffffffffffffffffffffffffffffffffffff1614151515610b6657600080fd5b610b6f81610cbc565b610bb6600260008573ffffffffffffffffffffffffffffffffffffffff1673ffffffffffffffffffffffffffffffffffffffff168152602001908152602001600020610d7c565b610bfd600260008473ffffffffffffffffffffffffffffffffffffffff1673ffffffffffffffffffffffffffffffffffffffff168152602001908152602001600020610d9f565b8160008083815260200190815260200160002060006101000a81548173ffffffffffffffffffffffffffffffffffffffff021916908373ffffffffffffffffffffffffffffffffffffffff160217905550808273ffffffffffffffffffffffffffffffffffffffff168473ffffffffffffffffffffffffffffffffffffffff167fddf252ad1be2c89b69c2b068fc378daa952ba7f163c4a11628f55a4df523b3ef60405160405180910390a4505050565b600081600001549050919050565b600073ffffffffffffffffffffffffffffffffffffffff166001600083815260200190815260200160002060009054906101000a900473ffffffffffffffffffffffffffffffffffffffff1673ffffffffffffffffffffffffffffffffffffffff16141515610d795760006001600083815260200190815260200160002060006101000a81548173ffffffffffffffffffffffffffffffffffffffff021916908373ffffffffffffffffffffffffffffffffffffffff1602179055505b50565b610d9460018260000154610db590919063ffffffff16565b816000018190555050565b6001816000016000828254019250508190555050565b6000828211151515610dc657600080fd5b60008284039050809150509291505056fea165627a7a72305820ba253231fad402bc46786f9cd86e654f067ed82d275cdca15aae2978374a5d3c0029",
  "source": "pragma solidity >0.4.2 <0.6.0;\n\nimport \"./SafeMath.sol\";\nimport \"./Address.sol\";\nimport \"./Counters.sol\";\n\n\n/**\n * @title ERC721 Non-Fungible Token Standard basic implementation\n * @dev see https://github.com/ethereum/EIPs/blob/master/EIPS/eip-721.md\n */\ncontract ERC721  {\n    using SafeMath for uint256;\n    using Address for address;\n    using Counters for Counters.Counter;\n\n    // Equals to `bytes4(keccak256(\"onERC721Received(address,address,uint256,bytes)\"))`\n    // which can be also obtained as `IERC721Receiver(0).onERC721Received.selector`\n    bytes4 private constant _ERC721_RECEIVED = 0x150b7a02;\n\n    // Mapping from token ID to owner\n    mapping (uint256 => address) private _tokenOwner;\n\n    // Mapping from token ID to approved address\n    mapping (uint256 => address) private _tokenApprovals;\n\n    // Mapping from owner to number of owned token\n    mapping (address => Counters.Counter) private _ownedTokensCount;\n\n    // Mapping from owner to operator approvals\n    mapping (address => mapping (address => bool)) private _operatorApprovals;\nevent Transfer(address indexed from, address indexed to, uint256 indexed tokenId);\n    event Approval(address indexed owner, address indexed approved, uint256 indexed tokenId);\n    event ApprovalForAll(address indexed owner, address indexed operator, bool approved);\n\n     /**\n     * @dev Gets the token name\n     * @return string representing the token name\n     */\n     function name() external view returns (string memory) {\n        return \"CATs Token\";\n    }\n\n    /**\n     * @dev Gets the token symbol\n     * @return string representing the token symbol\n     */\n    function symbol() external view returns (string memory) {\n        return \"AGA\";\n    }\n\n   \n\n    /**\n     * @dev Gets the balance of the specified address\n     * @param owner address to query the balance of\n     * @return uint256 representing the amount owned by the passed address\n     */\n    function balanceOf(address owner) public view returns (uint256) {\n        require(owner != address(0));\n        return _ownedTokensCount[owner].current();\n    }\n\n    /**\n     * @dev Gets the owner of the specified token ID\n     * @param tokenId uint256 ID of the token to query the owner of\n     * @return address currently marked as the owner of the given token ID\n     */\n    function ownerOf(uint256 tokenId) public view returns (address) {\n        address owner = _tokenOwner[tokenId];\n        require(owner != address(0));\n        return owner;\n    }\n\n    /**\n     * @dev Approves another address to transfer the given token ID\n     * The zero address indicates there is no approved address.\n     * There can only be one approved address per token at a given time.\n     * Can only be called by the token owner or an approved operator.\n     * @param to address to be approved for the given token ID\n     * @param tokenId uint256 ID of the token to be approved\n     */\n    function approve(address to, uint256 tokenId) public {\n        address owner = ownerOf(tokenId);\n        require(to != owner);\n        require(msg.sender == owner || isApprovedForAll(owner, msg.sender));\n\n        _tokenApprovals[tokenId] = to;\n        emit Approval(owner, to, tokenId);\n    }\n\n    /**\n     * @dev Gets the approved address for a token ID, or zero if no address set\n     * Reverts if the token ID does not exist.\n     * @param tokenId uint256 ID of the token to query the approval of\n     * @return address currently approved for the given token ID\n     */\n    function getApproved(uint256 tokenId) public view returns (address) {\n        require(_exists(tokenId));\n        return _tokenApprovals[tokenId];\n    }\n\n    /**\n     * @dev Sets or unsets the approval of a given operator\n     * An operator is allowed to transfer all tokens of the sender on their behalf\n     * @param to operator address to set the approval\n     * @param approved representing the status of the approval to be set\n     */\n    function setApprovalForAll(address to, bool approved) public {\n        require(to != msg.sender);\n        _operatorApprovals[msg.sender][to] = approved;\n        emit ApprovalForAll(msg.sender, to, approved);\n    }\n\n    /**\n     * @dev Tells whether an operator is approved by a given owner\n     * @param owner owner address which you want to query the approval of\n     * @param operator operator address which you want to query the approval of\n     * @return bool whether the given operator is approved by the given owner\n     */\n    function isApprovedForAll(address owner, address operator) public view returns (bool) {\n        return _operatorApprovals[owner][operator];\n    }\n\n    /**\n     * @dev Transfers the ownership of a given token ID to another address\n     * Usage of this method is discouraged, use `safeTransferFrom` whenever possible\n     * Requires the msg.sender to be the owner, approved, or operator\n     * @param from current owner of the token\n     * @param to address to receive the ownership of the given token ID\n     * @param tokenId uint256 ID of the token to be transferred\n     */\n    function transferFrom(address from, address to, uint256 tokenId) public {\n        require(_isApprovedOrOwner(msg.sender, tokenId));\n\n        _transferFrom(from, to, tokenId);\n    }\n\n    /**\n     * @dev Safely transfers the ownership of a given token ID to another address\n     * If the target address is a contract, it must implement `onERC721Received`,\n     * which is called upon a safe transfer, and return the magic value\n     * `bytes4(keccak256(\"onERC721Received(address,address,uint256,bytes)\"))`; otherwise,\n     * the transfer is reverted.\n     * Requires the msg.sender to be the owner, approved, or operator\n     * @param from current owner of the token\n     * @param to address to receive the ownership of the given token ID\n     * @param tokenId uint256 ID of the token to be transferred\n     */\n    // function safeTransferFrom(address from, address to, uint256 tokenId) public {\n    //     safeTransferFrom(from, to, tokenId, \"\");\n    // }\n\n    /**\n     * @dev Safely transfers the ownership of a given token ID to another address\n     * If the target address is a contract, it must implement `onERC721Received`,\n     * which is called upon a safe transfer, and return the magic value\n     * `bytes4(keccak256(\"onERC721Received(address,address,uint256,bytes)\"))`; otherwise,\n     * the transfer is reverted.\n     * Requires the msg.sender to be the owner, approved, or operator\n     * @param from current owner of the token\n     * @param to address to receive the ownership of the given token ID\n     * @param tokenId uint256 ID of the token to be transferred\n     * @param _data bytes data to send along with a safe transfer check\n     */\n    // function safeTransferFrom(address from, address to, uint256 tokenId, bytes memory _data) public {\n    //     transferFrom(from, to, tokenId);\n    //     require(_checkOnERC721Received(from, to, tokenId, _data));\n    // }\n\n    /**\n     * @dev Returns whether the specified token exists\n     * @param tokenId uint256 ID of the token to query the existence of\n     * @return bool whether the token exists\n     */\n    function _exists(uint256 tokenId) internal view returns (bool) {\n        address owner = _tokenOwner[tokenId];\n        return owner != address(0);\n    }\n\n    /**\n     * @dev Returns whether the given spender can transfer a given token ID\n     * @param spender address of the spender to query\n     * @param tokenId uint256 ID of the token to be transferred\n     * @return bool whether the msg.sender is approved for the given token ID,\n     * is an operator of the owner, or is the owner of the token\n     */\n    function _isApprovedOrOwner(address spender, uint256 tokenId) internal view returns (bool) {\n        address owner = ownerOf(tokenId);\n        return (spender == owner || getApproved(tokenId) == spender || isApprovedForAll(owner, spender));\n    }\n\n    /**\n     * @dev Internal function to mint a new token\n     * Reverts if the given token ID already exists\n     * @param to The address that will own the minted token\n     * @param tokenId uint256 ID of the token to be minted\n     */\n    function _mint(address to, uint256 tokenId) internal {\n        require(to != address(0));\n        require(!_exists(tokenId));\n\n        _tokenOwner[tokenId] = to;\n        _ownedTokensCount[to].increment();\n\n        emit Transfer(address(0), to, tokenId);\n    }\n\n    /**\n     * @dev Internal function to burn a specific token\n     * Reverts if the token does not exist\n     * Deprecated, use _burn(uint256) instead.\n     * @param owner owner of the token to burn\n     * @param tokenId uint256 ID of the token being burned\n     */\n    function _burn(address owner, uint256 tokenId) internal {\n        require(ownerOf(tokenId) == owner);\n\n        _clearApproval(tokenId);\n\n        _ownedTokensCount[owner].decrement();\n        _tokenOwner[tokenId] = address(0);\n\n        emit Transfer(owner, address(0), tokenId);\n    }\n\n    /**\n     * @dev Internal function to burn a specific token\n     * Reverts if the token does not exist\n     * @param tokenId uint256 ID of the token being burned\n     */\n    function _burn(uint256 tokenId) internal {\n        _burn(ownerOf(tokenId), tokenId);\n    }\n\n    /**\n     * @dev Internal function to transfer ownership of a given token ID to another address.\n     * As opposed to transferFrom, this imposes no restrictions on msg.sender.\n     * @param from current owner of the token\n     * @param to address to receive the ownership of the given token ID\n     * @param tokenId uint256 ID of the token to be transferred\n     */\n    function _transferFrom(address from, address to, uint256 tokenId) internal {\n        require(ownerOf(tokenId) == from);\n        require(to != address(0));\n\n        _clearApproval(tokenId);\n\n        _ownedTokensCount[from].decrement();\n        _ownedTokensCount[to].increment();\n\n        _tokenOwner[tokenId] = to;\n\n        emit Transfer(from, to, tokenId);\n    }\n\n    /**\n     * @dev Internal function to invoke `onERC721Received` on a target address\n     * The call is not executed if the target address is not a contract\n     * @param from address representing the previous owner of the given token ID\n     * @param to target address that will receive the tokens\n     * @param tokenId uint256 ID of the token to be transferred\n     * @param _data bytes optional data to send along with the call\n     * @return bool whether the call correctly returned the expected magic value\n     */\n    // function _checkOnERC721Received(address from, address to, uint256 tokenId, bytes memory _data)\n    //     internal returns (bool)\n    // {\n    //     if (!to.isContract()) {\n    //         return true;\n    //     }\n\n    //     bytes4 retval = IERC721Receiver(to).onERC721Received(msg.sender, from, tokenId, _data);\n    //     return (retval == _ERC721_RECEIVED);\n    // }\n\n    /**\n     * @dev Private function to clear current approval of a given token ID\n     * @param tokenId uint256 ID of the token to be transferred\n     */\n    function _clearApproval(uint256 tokenId) private {\n        if (_tokenApprovals[tokenId] != address(0)) {\n            _tokenApprovals[tokenId] = address(0);\n        }\n    }\n}",
  "sourcePath": "/home/gokul/Documents/ced/cedPro/cats/contracts/ERC721.sol",
  "compiler": {
    "name": "solc",
    "version": "0.5.0+commit.1d4f565a.Emscripten.clang"
  },
  "schemaVersion": "3.0.1",
  "updatedAt": "2019-03-07T07:15:55.734Z",
  "devdoc": {
    "details": "see https://github.com/ethereum/EIPs/blob/master/EIPS/eip-721.md",
    "methods": {
      "approve(address,uint256)": {
        "details": "Approves another address to transfer the given token ID The zero address indicates there is no approved address. There can only be one approved address per token at a given time. Can only be called by the token owner or an approved operator.",
        "params": {
          "to": "address to be approved for the given token ID",
          "tokenId": "uint256 ID of the token to be approved"
        }
      },
      "balanceOf(address)": {
        "details": "Gets the balance of the specified address",
        "params": {
          "owner": "address to query the balance of"
        },
        "return": "uint256 representing the amount owned by the passed address"
      },
      "getApproved(uint256)": {
        "details": "Gets the approved address for a token ID, or zero if no address set Reverts if the token ID does not exist.",
        "params": {
          "tokenId": "uint256 ID of the token to query the approval of"
        },
        "return": "address currently approved for the given token ID"
      },
      "isApprovedForAll(address,address)": {
        "details": "Tells whether an operator is approved by a given owner",
        "params": {
          "operator": "operator address which you want to query the approval of",
          "owner": "owner address which you want to query the approval of"
        },
        "return": "bool whether the given operator is approved by the given owner"
      },
      "name()": {
        "details": "Gets the token name",
        "return": "string representing the token name"
      },
      "ownerOf(uint256)": {
        "details": "Gets the owner of the specified token ID",
        "params": {
          "tokenId": "uint256 ID of the token to query the owner of"
        },
        "return": "address currently marked as the owner of the given token ID"
      },
      "setApprovalForAll(address,bool)": {
        "details": "Sets or unsets the approval of a given operator An operator is allowed to transfer all tokens of the sender on their behalf",
        "params": {
          "approved": "representing the status of the approval to be set",
          "to": "operator address to set the approval"
        }
      },
      "symbol()": {
        "details": "Gets the token symbol",
        "return": "string representing the token symbol"
      },
      "transferFrom(address,address,uint256)": {
        "details": "Transfers the ownership of a given token ID to another address Usage of this method is discouraged, use `safeTransferFrom` whenever possible Requires the msg.sender to be the owner, approved, or operator",
        "params": {
          "from": "current owner of the token",
          "to": "address to receive the ownership of the given token ID",
          "tokenId": "uint256 ID of the token to be transferred"
        }
      }
    },
    "title": "ERC721 Non-Fungible Token Standard basic implementation"
  },
  "userdoc": {
    "methods": {}
  }
}